:020000040800F2
:10000000D80600205D010008A9090008770700084C
:10001000A5090008590700080B150008000000009A
:10002000000000000000000000000000A710000811
:1000300061070008000000001F0C0008A91000085C
:10004000770100085D07000809150008000000009E
:1000500000000000770100080515000807150008DA
:1000600015100008000000007B0700081D0C0008A8
:100070000F150008000000002D1300085913000898
:100080008513000877010008000000005F070008E2
:100090001710000800000000000000000000000031
:1000A00000000000000000000000000057070008EA
:1000B000710700087307000875070008770100083A
:1000C00000F002F800F03AF80AA090E8000C824430
:1000D0008344AAF10107DA4501D100F02FF8AFF20D
:1000E000090EBAE80F0013F0010F18BFFB1A43F016
:1000F00001031847F014000010150000103A24BF47
:1001000078C878C1FAD8520724BF30C830C144BF7C
:1001100004680C60704700000023002400250026BE
:10012000103A28BF78C1FBD8520728BF30C148BF5A
:100130000B6070471FB51FBD10B510BD00F031F842
:100140001146FFF7F7FF01F0E3F900F04FF803B4B1
:10015000FFF7F2FF03BC00F057F8000009488047A2
:1001600009480047FEE7FEE7FEE7FEE7FEE7FEE799
:10017000FEE7FEE7FEE7FEE704480549054A064BB1
:1001800070470000F9110008C1000008D8000020E5
:10019000D8060020D8020020D802002070477047FF
:1001A0007047754600F02CF8AE4605006946534688
:1001B00020F00700854618B020B5FFF7DDFFBDE849
:1001C00020404FF000064FF000074FF000084FF0BE
:1001D000000B21F00701AC46ACE8C009ACE8C0094F
:1001E000ACE8C009ACE8C0098D46704710B50446BC
:1001F000AFF300802046BDE81040FFF7A8BF000025
:10020000004870477800002001491820ABBEFEE787
:10021000260002007047000008B5009002E0009937
:10022000491E009100990029F9D108BD00E0401E47
:100230000028FCD1704770B502460B46DC48DD4E05
:1002400030613046006800F03800411C012B01D1BC
:10025000580200E000200143D6480160426041F4AA
:10026000E070D44E30603046C0683046C0683046DA
:10027000C0683046C56801F0380101600020306177
:100280009007C40EE540E8B270BD70B502460B465B
:10029000C748C84E30613046006800F03800411C45
:1002A000012B01D1580200E000200143C148016048
:1002B000426041F4E070BF4E30603046C068304666
:1002C000C0683046C0683046C56801F0380101603A
:1002D0000020306102F00200C400E540A8B270BD09
:1002E00030B502460B46B24CB24D2C612C46246808
:1002F00004F03804611C012B01D15C0200E00024F1
:100300002143AC4C2160626041F4E074A94D2C6043
:100310002C46E4682C46E4682C46E4682C46E068E9
:1003200001F03801216000242C6130BD30B5044655
:100330000D469F489F4908610846006800F0380054
:10034000421C012D01D1481500E0002002439948CC
:100350000260994904EA010000F100609549486093
:100360000020886042F48862084602600720FFF798
:1003700053FF42F400528F4802604EF66020FFF7B0
:100380004BFF22F480628B4802600720FFF744FF96
:1003900022F40152874802600120FFF73DFF02F07E
:1003A00038028448026000208249086130BD70B57F
:1003B00005460E467E487F4908610846006800F001
:1003C0003800421C012E01D1481500E000200243F4
:1003D00078480260002422E028197649486000200D
:1003E000886042F48862084602600720FFF714FF25
:1003F00042F400526F4802604EF66020FFF70CFF97
:1004000022F480626B4802600720FFF705FF22F4A8
:100410000152684802600120FFF7FEFE241D102CE7
:10042000DAD302F0380263480260002061490861B3
:1004300070BD30B505465E485E49086108460068F3
:1004400000F03800421C022D01D1481500E00020C8
:10045000024358480260002422E0564844600020CD
:100460005449886042F44462084602600720FFF75E
:10047000D3FE42F400524F4802604EF66020FFF770
:10048000CBFE22F480624B4802609620FFF7C4FE48
:1004900022F42152474802600120FFF7BDFE241DCF
:1004A000102CDAD302F038024248026000204149A1
:1004B000086130BD70B505460C4616463C483D49BE
:1004C0000861012C01D1481500E00020044639489C
:1004D000006800F0380244F0010002433548026031
:1004E0004560866042F4825202600720FFF794FE66
:1004F00042F400522F4802600F20FFF78DFE42F0B9
:1005000080022C4802603C20FFF786FE22F0800229
:100510002848026022F4805202600720FFF77CFE28
:1005200022F40152234802600120FFF775FE02F019
:100530003800204908600020086170BD2DE9F043B3
:10054000054688461446A807C70EBC40FF2000FA9F
:1005500007F641462846FFF7C3FE814629EA060012
:1005600004EA060140EA010241462846FFF7A2FFDD
:10057000BDE8F0832DE9F04305468846144605F0B2
:100580000200C700BC404FF6FF7000FA07F6414674
:100590002846FFF7A5FE814629EA060004EA06017F
:1005A00040EA010241462846FFF784FFBDE8F08398
:1005B0005155AA8A008001400CF001000146054A0D
:1005C000106811B140F0010001E020F00100014A83
:1005D000106070470080084010B5144B1A68144B27
:1005E0001A40D0E90034234484682344C46803EBF0
:1005F000041344692344C4692344446A234490F89F
:10060000284003EB44631A44084B596821F4003135
:10061000038C01EB4341054B1A605960038B034C7B
:100620002361438BA3600369A36210BD008008406F
:100630000300FFF10348006840F002000149086030
:10064000704700000080084000B593B001214804C5
:1006500000F0D0FC0121080600F0CCFC0420154974
:100660000880002088708872134800F0D9F900F0E3
:1006700025F80CA800F058F800200C904FF48020CA
:100680000F9040100E900CA800F02EF801A800F07A
:1006900054F800200190029002200490012009905B
:1006A0004FF4E0400A9007200B9001A8FFF794FF59
:1006B00013B000BD6C00002000000C400020094970
:1006C0000860486088600861084680690020086208
:1006D0008862C86048610846C06900204862C862F4
:1006E000704700000080084010B50479836803EB70
:1006F0000473C46823440469234444691919048BAE
:10070000036803EB44531944044A054B1A43054B51
:100710001B6893430B44034C236010BD00001EF084
:100720000000E1010080084000210160416081601B
:10073000C1600161416181617047002101604160D8
:100740008160C1600161416101834183C1610162D6
:10075000416281627047704700BFFEE77047704793
:1007600070470000014908607047000000800140A8
:1007700070477047704700BFFEE7704710B52D20E7
:1007800000F040FA012000F0FDFB4648C06B20F469
:10079000F8104449C8630846C06B40F4C010C863F1
:1007A0000846C06B40F40040C86340F648503E49DC
:1007B000086004E03C480068401E3B4908603A4835
:1007C00000680028F6D100F0FBFB012822D10121AE
:1007D000082000F00FFC0820FFF7C4FF05210320CC
:1007E00000F024FA012000F01BFA40F21520FFF778
:1007F0001DFD00F03BFA01280AD1002000F056FA56
:10080000012000F04DFA4FF4807000F05BFA03E035
:1008100000F0EAF800F0E8F80121480500F0EAFBF2
:10082000224800F0F3F80121880500F0E3FB20489E
:1008300000F0ECF80121C80500F0DCFB1D4800F0D9
:10084000E5F80121080600F0D5FB1B4800F0DEF8B2
:100850000121480600F0CEFB184800F0D7F801212E
:10086000480700F0C7FB164800F0D0F801211548F2
:1008700000F0C0FB00BF0021124800F0BBFB0121CB
:10088000202000F0B7FB4FF0FF300F49086288616D
:100890000520012181400D4A430942F8231000BF81
:1008A00010BD000000800D401800002000800A40AC
:1008B00000000B4000800B4000000C4000800C400A
:1008C00000800E40000110000080024080E200E045
:1008D00010B501214FF4987000F08CFB01214807FE
:1008E00000F088FB0121C80500F084FB284800F0D7
:1008F000B1FB0121264800F08FFB264800F086F866
:10090000254800F071F908202349088000208870EC
:1009100002200872012088720871022048721D4866
:1009200000F07EF807201C490880012088701948D3
:1009300000F076F8194800F069F8174800F054F90B
:1009400003201549088001208870002008720120CA
:10095000887202204872114800F062F80F4800685F
:1009600040F003000D4908600D4800F08FFB0020A7
:100970000B4908800C204880002088800F20C88008
:10098000002088810220C881014800F06CFB10BD66
:100990000000044000800E406C00002000800B40EE
:1009A0005C00002000BFFEE7704700F01F0201213D
:1009B00091404209920002F1E022C2F80011704712
:1009C00010B5002807DA4A07140E054A00F00F0395
:1009D0001B1FD45403E04A07130E024A135410BDE0
:1009E00018ED00E000E400E00648006800F4E06074
:1009F00005490843001D03490860BFF34F8F00BF3E
:100A0000FEE700000CED00E00000FA050021C160E7
:100A1000016141600160816041618161C161704734
:100A20002DE9FE4F4768D0F808C0D0F80C80D0F808
:100A30001090D0F814A0CDF808A0D0F818A0CDF8E8
:100A400004A0D0F81CA0CDF800A0002201230325AB
:100A50004FF001160C885FE004F0010ABAF1000FB4
:100A600055D027EA030A91F802B00BFA02FB4AEAD2
:100A70000B0791F808A04FEA420B0AFA0BFA2CEA8E
:100A8000050B4AEA0B0C28EA030A91F80AB00BFAA4
:100A900002FB4AEA0B0829EA060A91F803B002F1C0
:100AA000100E0BFA0EFB4AEA0B0A91F804B00BFA8F
:100AB00002FB4AEA0B09DDF808A02AEA060A91F8C7
:100AC00005B00BFA0EFB4AEA0B0A91F806B00BFAD6
:100AD00002FB4AEA0B0ACDF808A091F809A04FEAF8
:100AE000420B0AFA0BFADDF804B02BEA050B4AEACE
:100AF0000B0ACDF804A0DDF800A02AEA030A91F859
:100B000007B00BFA02FB4AEA0B0ACDF800A05B0023
:100B1000AD007600521C6408002C9DD1DFF8C4A003
:100B2000504502D14FF01F0A01E04FF0000A27EABA
:100B30000A0AC0F804A0DFF8ACA0504502D14FF07B
:100B40001F0A01E04FF0000A2CEA0A0AC0F808A0C8
:100B5000DFF890A0504502D14FF01F0A01E04FF09E
:100B6000000A28EA0A0AC0F80CA0DFF878A050456D
:100B700002D14FF01F0A01E04FF0000A29EA0A0AE9
:100B8000C0F810A0DFF85CA0504502D14FF01F0B59
:100B900001E04FF0000BDDF808A02AEA0B0AC0F8CC
:100BA00014A0DFF840A0504502D14FF01F0B01E028
:100BB0004FF0000BDDF804A02AEA0B0AC0F818A0D9
:100BC000DFF820A0504502D14FF01F0B01E04FF09D
:100BD000000BDDF800A02AEA0B0AC0F81CA0BDE853
:100BE000FE8F000000000B404FF6FF7101800021D6
:100BF0008170C170017141718171C1710172417265
:100C000081727047044A926B22F03F0100F03F026C
:100C10001143014A9163704700800D40704770474F
:100C200001490860704700008800404210B5024644
:100C30000C4BD86820F003001043D860586820F4AB
:100C4000706040EA01205860074B1B6843B10123E4
:100C5000054C241D23600023034C883CC4F88C30D1
:100C600010BD0000000002408800404238B500205E
:100C7000009000BF212000F06BF905460098401C51
:100C800000900098B0F5C06F01D2002DF2D0212065
:100C900000F05EF908B1012400E00024204638BDD0
:100CA0000021014A10607047880140420146044A11
:100CB000D06820F0F00040EA0110D06070470000DA
:100CC000000002400146034AD06820F44070084307
:100CD000D0607047000002402DE9FC4F0146DFF86C
:100CE00064B2DBF80CB00BF0020BBBF1000F01D0CB
:100CF000954B00E0954BDFF84CB2DBF80CB00BF0F5
:100D0000010BBBF1000F00D05B081C46DFF834B2CA
:100D1000DBF80CB00BF0040BBBF1000F0DD0DFF8CB
:100D200024B2DBF804B0CBF3032B0BF1010BCDF8AD
:100D300000B0DDF800B004FB0BF4DFF808B2DBF81C
:100D40000CB0CBF3012BBBF1000F06D0BBF1010FB0
:100D500008D0BBF1020F28D122E0DFF8F0B1C1F8D2
:100D600000B027E0DFF8DCB1DBF80CB04FF0080E84
:100D70000EEA1B1BBBF1000F01D1A0460DE0DFF80E
:100D8000C4B1DBF80CB0CBF3021B0BF1010B4FF03D
:100D9000010E0EFA0BFEB4FBFEF8C1F8008009E06C
:100DA0004FF4004BC1F800B004E049F6404BC1F8E5
:100DB00000B000BF00BFDFF88CB1DBF810B00BF063
:100DC000020BBBF1000F01D05F4D00E05F4DDFF87B
:100DD00074B1DBF810B00BF0010BBBF1000F00D0C9
:100DE0006D082F46DFF85CB1DBF810B00BF0040B98
:100DF000BBF1000F0DD0DFF84CB1DBF804B0CBF342
:100E0000031B0BF1010BCDF800B0DDF800B007FBC0
:100E10000BF7B946DFF82CB1DBF810B00BF0100B74
:100E2000BBF1000F01D04FEA5909C1F80490DFF877
:100E300014B1DBF818B04FEA1B1000F0080BBBF13F
:100E4000000F02D1DFF804C10BE000F0070B0BF13B
:100E5000010B4FF0010E0EFA0BF0DFF8F0B0BBFB08
:100E6000F0FCC1F80CC0DFF8DCB0DBF8180000F0D3
:100E7000080BBBF1000F04D1DFF8CCB0CDF804B003
:100E80000DE000F0070B0BF1010B4FF0010E0EFA15
:100E90000BF0DFF8B4B0BBFBF0FBCDF804B0DDF82D
:100EA00004B0C1F810B0DFF89CB0DBF814B00BF060
:100EB000030BBBF1000F06D0BBF1010F05D0BBF156
:100EC000020F06D103E01E4605E02E4603E026464B
:100ED00001E03E4600BF00BFDFF868B0DBF814B0A9
:100EE000CBF3011BBBF1000F06D0BBF1010F06D005
:100EF000BBF1020F08D105E04FF4004206E049F6CD
:100F0000404203E0324601E0624600BF00BFDFF826
:100F100034B0DBF814B04FEA1B2000F0080BBBF133
:100F2000000F01D1924609E000F0070B0BF1010B15
:100F30004FF0010E0EFA0BF0B2FBF0FAC1F808A068
:100F4000BDE8FC8F000002400024F40000127A008B
:100F500010B5014601F0E003202B02D1074B1A68BF
:100F600001E0074BDA6B01F01F040123A34013409B
:100F70000BB1012000E0002010BD00000000024085
:100F800000800D400D49896821F003010B4A9160F2
:100F9000012802D002280ED106E00849896841F0F4
:100FA0000101064A916007E00449896841F00301A4
:100FB000024A916000E000BF00BF7047000002409D
:100FC00038B50020009000BF2220FFF7C1FF054682
:100FD0000098401C00900098B0F5C06F01D2002D21
:100FE000F2D02220FFF7B4FF08B1012400E0002472
:100FF000204638BD29B1064AD2690243044BDA6162
:1010000004E0034AD2698243014BDA617047000071
:10101000000002407047704702460B4BD86A0B4BEA
:101020009A4205D140F0807020F0FF00084308E0AC
:10103000074B9A4205D140F0007020F47F4040EA0F
:101040000120014BD86270470000024000000440BC
:1010500000000A400021016041600161416141627C
:1010600003210162704710B54B8803610B890C881E
:1010700003EB04234C8923448C892344CC881A191C
:101080000260CB898C881A19426010BD00218180D2
:101090000721C1800021418101818181022141809C
:1010A00000210180704770474FF0E020006920F474
:1010B00080304FF0E021086125480068401C244939
:1010C00008602448008820F0010022490880224856
:1010D000008880B22149886000BF2048C06800F0C5
:1010E00010000028F9D11B48008820F00100401CA6
:1010F000184908800846008820F002000880164839
:10110000008880B21549886000BF1448C06800F0AC
:1011100010000028F9D10F48008820F00200801C40
:101120000C4908800A4800680A21B0FBF1F201FB73
:10113000120058B90A488069C0F30B0006490860DC
:101140000748006840F00200054908607047000049
:101150000800002000800B40FCFF0020000004403D
:101160000080084030B5204CE46804F00204022CF2
:1011700001D11E4800E01E481B4CE46804F0010445
:1011800004B140080146184CE46804F00404042C3F
:1011900005D1154C6468C4F30324631C5943124CF5
:1011A000E468C4F3012424B1012C06D0022C13D12D
:1011B0000DE00F4C0F4D2C6013E00B4CE468C4F3B2
:1011C0000314641CB1FBF4F20A4C226009E04FF4F2
:1011D0000044084D2C6004E049F64044054D2C6065
:1011E00000BF00BF30BD0000000002400024F4003A
:1011F00000127A000000002000B50D480D49C861BA
:101200000846C0680020C860084640680020486062
:101210000846806800208860084600690020086150
:101220000846406900204861FFF79CFF00BD0000B0
:1012300010000008000002400246104B586A104B94
:101240009A4205D120F0FF00084340F0807012E080
:101250000C4B9A4206D120F47F4040EA012040F036
:10126000007008E0084B9A4205D120F47F0040EA64
:10127000014040F08060014B58627047000002401E
:101280000000074000800740000008400A46C1688F
:1012900012B141F0010101E021F00101C16070478C
:1012A00030B50C8804604C8844608C888460CC889D
:1012B0000D892C444D892C448D892C44CD8963198A
:1012C000C3604C8A0D8A04EB05148D8A2C44CD8AA8
:1012D0006219026530BD0021C1600160416081601A
:1012E000016241628162C162016341638163C163E2
:1012F000016641668166C166016141618161C161CA
:10130000016741678167C167016441648164C164A9
:10131000016541658165C165704710B51346826DF1
:101320000BB10A4300E08A43826510BD0848406D56
:1013300020F0020006494865064800888008C0433E
:101340000449098860F38201024801807047000067
:101350000000074000800A400848406D20F002006D
:1013600006494865064800884009C0430449098881
:1013700060F345110248018070470000008007407B
:1013800000800A400848406D20F002000649486588
:10139000064800880009C0430449098860F3041125
:1013A00002480180704700000000084000800A40A9
:1013B00000B587B001218803FFF71CFE0121C80397
:1013C000FFF718FE01210804FFF714FE4648FFF757
:1013D00082FF4648FFF77FFF4548FFF77CFF4548FF
:1013E000FFF77AFC434800684349086000213E4803
:1013F000FFF722FF00213D48FFF71EFF00213C4878
:10140000FFF71AFF3C4800683C49B0FBF1F0401E72
:1014100080B2ADF8060042F20F70ADF8080000206F
:10142000ADF80A00ADF80C00ADF80E00ADF81000F4
:10143000ADF81200ADF81400ADF81600ADF81800C4
:10144000ADF81A0001A92848FFF72AFF04210E2051
:10145000FFF7B6FA012202212348FFF75EFF0121C0
:101460002148FFF713FF0E20FFF79FFA224800687C
:101470002349B0FBF1F0401E80B2ADF8060042F205
:101480000F70ADF8080001A91848FFF709FF042103
:101490000F20FFF795FA012202211448FFF73DFFC4
:1014A00001211248FFF7F2FE0F20FFF77EFA01201C
:1014B000ADF806002F20ADF8080001A90C48FFF791
:1014C000EFFE02211020FFF77BFA012202210848DB
:1014D000FFF723FF01210648FFF7D8FE1020FFF792
:1014E00064FA07B000BD000000000740008007401C
:1014F00000000840480000200400002040420F0087
:10150000C0C62D0070477047704700BFFEE77047A8
:10151000FFF734F92C48FFF767FB34202A4908808D
:101520000120887000200872012088720220487211
:101530002648FFF775FA2448FFF756FB202022497A
:101540000880012088700020087201208872022023
:1015500048721F48FFF764FAFFF776F80120FFF79B
:101560002DF8FFF767F800BF1A48006A00F0040082
:101570000028F9D000201749086208468069C0F3A6
:101580000B0015490860FFF7A3F90321081FFFF7B7
:1015900017FA1248FFF7A0FB1048006810490860CE
:1015A00000204FF0E02188610D4800680A21B0FB5F
:1015B000F1F0401E4FF0E021486107200861FFF77D
:1015C000F7FE00E000BFFDE76C00002000800A404D
:1015D00000000B4000800840FCFF00203400002089
:1015E0000400002004160008000000203400000061
:1015F000FC0000083816000834000020A406000093
:101600001801000800127A0000000000000000002D
:1016100000100000000000000000000000000000BA
:1016200000000000000000000000000000000000BA
:081630000000000000000000B2
:04000005080000C12E
:00000001FF
